:020000040800F2
:10000000702C00205D0200081F4F000823420008EA
:100010001D4F0008DD240008D95900080000000029
:100020000000000000000000000000004956000829
:10003000DF24000800000000B55200084B560008FD
:1000400077020008770200087702000877020008AC
:10005000770200087702000877020008770200089C
:10006000770200087702000877020008770200088C
:10007000770200087702000877020008770200087C
:10008000770200087702000877020008770200086C
:10009000770200087702000877020008770200085C
:1000A000770200087702000877020008770200084C
:1000B0007702000877020008770200083142000842
:1000C000254200087702000877020008770200083E
:1000D00077020008CD59000877020008770200086F
:1000E000770200087702000877020008770200080C
:1000F00077020008770200087702000877020008FC
:1001000077020008770200087702000877020008EB
:1001100077020008770200087702000877020008DB
:1001200077020008770200087702000877020008CB
:1001300077020008770200087702000877020008BB
:1001400077020008770200087702000877020008AB
:10015000770200087702000877020008770200089B
:10016000770200087702000877020008770200088B
:1001700077020008770200087702000800000000FC
:10018000770200087702000800F002F800F056F845
:100190000AA090E8000C82448344AAF10107DA45E2
:1001A00001D100F04BF8AFF2090EBAE80F0013F0DE
:1001B000010F18BFFB1A43F001031847147C00001D
:1001C000347C0000103A24BF78C878C1FAD85207AE
:1001D00024BF30C830C144BF04680C6070470000C1
:1001E0000023002400250026103A28BF78C1FBD840
:1001F000520728BF30C148BF0B607047642900F028
:100200002F81752900F02C81782900F06581632900
:1002100000F0C183732900F0C683002070471FB52A
:1002200005F06EFE00F04EFC04000020002105F0F9
:1002300051FE401C60601FBD10B510BD00F054FCA5
:100240001146FFF7ECFF05F0DFFB00F072FC03B492
:10025000FFF7F2FF03BC00F0B5FC0000094880473F
:1002600009480047FEE7FEE7FEE7FEE7FEE7FEE798
:10027000FEE7FEE7FEE7FEE704480549054A064BB0
:1002800070470000E9560008890100087026002028
:10029000702C0020702800207028002053EA020CE7
:1002A00000F069802DE9F04B4FF00006002B1FBFD6
:1002B000B3FA83F503FA05F424FA05F65E4012BF9B
:1002C0001643B2FA82F502FA05F4C5F120051EBF05
:1002D00022FA05FC44EA0C04203556EA044C4FEAA5
:1002E000144418BF641C4FF000084FF000099042FE
:1002F00071EB030C39D3002919BFB1FA81F701FA68
:1003000007F6B0FA80F700FA07F6C7F120071EBF1C
:1003100020FA07FC46EA0C062037B6FBF4FCA7EBF4
:100320000507103F07F01F0BCBF120060CFA0BFB63
:100330002CFA06F644BFB3460026202FA4BF5E4623
:100340004FF0000B5BEA060C08BF4FF0010B19EBF6
:100350000B09ABFB027C48EB0608C01B06FB02CC7A
:100360000BFB03CC71EB0C01C1E70B460246414687
:100370004846BDE8F08B13B54FF000004FF0000188
:10038000AFF30080BDE81C40704700000FB41CB5FF
:100390000C0007AA009001D02044401E074B7B446C
:1003A00069460190069800F0CCFA002C03D069460B
:1003B000002000F0D9FA1CBC5DF814FBD105000048
:1003C00070B5044685690068C10601D5302600E095
:1003D0002026C00707D070BDD4E9012130469047E0
:1003E000206A401C20626D1EF6D570BD70B50446B3
:1003F00085690078C00707D170BDD4E901212020AC
:100400009047206A401C20626D1EF6D570BD70B505
:100410000C460546012A05D02878800600D5EA69F1
:10042000002302E0012305E05B1C934202D2E05C62
:100430000028F9D1A869E618C01AA861286A1844EA
:1004400028622846FFF7BCFF04E0D5E9012114F833
:10045000010B9047B442F8D32846FFF7C7FF70BDA1
:100460002DE9F0410646002410687529314616A58D
:1004700010D0AFF30080002802DA404213A507E055
:1004800031688A0701D512A502E0490704D511A5F4
:10049000012401E0AFF3008000210A2206F12407C5
:1004A00009E0B0FBF2FCB0FBF2F302FB1C003030C1
:1004B00078541846491C0028F3D123462A46304672
:1004C000BDE8F04100F0DEB9000000002D000000A2
:1004D0002B0000002000000070B504460D462146A8
:1004E0001068AFF300802188090502D50F4A7A44CD
:1004F00002E00E4A7A440E32002104F1240305E0A2
:1005000000F00F060009965D5E54491C0028F7D1E3
:1005100020780023000704D5702D02D009B10223F2
:1005200011322046BDE8704000F0ACB94E780000B2
:100530002DE9F05F894604464FF0000ADFF874B1F8
:10054000FB44C0F820A02046E1688847002874D00A
:10055000252806D0D4E901219047206A401C20625A
:10056000F1E700265F462046E168884720280546D7
:1005700007DB312D05D2781910F8200C08B106439D
:10058000F1E7B00701D526F00406C4F81CA0002747
:10059000C4F818A02A2D09D0284605F02EFA38B341
:1005A00004EB8708303DC8F8185019E059F8041BCF
:1005B000204604EB87029161E1688847012F0546D8
:1005C00018D1E069002820DA26F020061DE0D8F8CE
:1005D000180000EB800005EB40003038C8F8180028
:1005E0002046E1688847054605F007FA0028EED165
:1005F000012F0AD02E2D08D12046E16888477F1CA4
:100600000546022F46F02006C4DBA069002803DA65
:10061000404246F00106A061F00701D026F0100626
:100620006C2D0BD0682D09D04C2D39D06A2D35D0CA
:10063000742D35D07A2D33D016E038E0E1682F469E
:1006400020468847B842054609D16C2F26D04FF482
:100650008060E168064320468847054604E06C2F29
:100660001AD04FF4807006430DB3A5F1410019284C
:1006700002D8203546F400664A46294620462660C0
:100680004E46FFF7BBFD80B101280BD0F61D26F0CA
:10069000070000F1080956E74020E4E78020D8E78A
:1006A0000020D6E706F104094DE7284652E7206A04
:1006B000BDE8F09F2478000070B5064600F0DEF833
:1006C0000468054630460A22002100F0BFF92C607C
:1006D00070BD2DE9F05F93460F4680460446002624
:1006E00000F0CCF8D0F80090824614F8015B2DB1F0
:1006F00000F0BCF80068405DC007F6D12B2D02D099
:100700002D2D1AD0641E0021CAF800105A46394611
:10071000204600F04CF9014627B13868A04201D1CB
:10072000C7F80080DAF80000022809D0CAF8009063
:10073000700505D54842BDE8F09F46F48066E2E7C3
:100740000846F8E710B5431C02E010F8011B71B130
:100750008107FAD14FF0013202C88C1A8C4314EA97
:10076000C211F9D0C01A0A0603D0C01E10BDC01AAB
:1007700010BD0A0401D0801E10BD0902FCD0401E2D
:1007800010BD40EA010370B59B072ED14FF0013632
:10079000042A2AD308C810C99D1B9D43121F15EABD
:1007A000C61517D0D8B2E1B2401A50EA056110D18F
:1007B00098B2A1B2401A50EA05410AD123F07F4015
:1007C00024F07F41401A50EA052102D1180EA0EB17
:1007D000146070BDA342DBD018BA21BA884201D997
:1007E000012070BD4FF0FF3070BD0AB9002070BD10
:1007F00010F8013B11F8014B63B1A3420AD1521E1C
:1008000008D010F8013B11F8014B1BB1A34201D1F4
:10081000521EEDD1181B70BD4FF0000200B51346FB
:1008200094469646203922BFA0E80C50A0E80C5010
:10083000B1F12001BFF4F7AF090728BFA0E80C50C1
:1008400048BF0CC05DF804EB890028BF40F8042BBA
:1008500008BF704748BF20F8022B11F0804F18BF27
:1008600000F8012B704770477047704710B500F0D3
:1008700029F9001D10BD00BF5D56000000487047FB
:100880000C2600202DE9F0470D4699469246044675
:1008900000F124080168880604D5E06921F0100100
:1008A000216000E00120A84201DD471B00E0002795
:1008B000A1697A1902EB0900081AA0612078C00624
:1008C00002D42046FFF77CFD002608E0D4E9012190
:1008D0001AF806009047206A401C761C20624E459C
:1008E000F4DB2078C0060AD52046FFF769FD06E054
:1008F000D4E9012130209047206A401C2062381E34
:10090000A7F10107F4DC07E0D4E9012118F805009C
:100910009047206A401C2062281EA5F10105F3DCE7
:100920002046FFF763FD2078000602D50220BDE8CF
:10093000F0870120FBE7000001694A1C026108788A
:10094000704700B58FB0CDE901310021059105490F
:100950007944CDE9031011466846FFF7E9FD0FB071
:1009600000BD0000E5FFFFFF0A6802F8010B0A6006
:100970007047D1E900239A4202D2531C0B601070D9
:10098000704710B5436913B1AFF3008001E0FFF782
:100990003EFD012010BD127800F124010A700022F2
:1009A0004A700122EDE711684FF0FF32E9E72DE9C7
:1009B000F05F824615468B4600270AF10104B946CE
:1009C0000078302801D09DB113E014F8010B012705
:1009D000782803D0582801D045B10AE00DB1102D78
:1009E00007D1002714F8010B102502E0082500E0CC
:1009F0000A250026B0460EE005FB080005FB06F1BF
:100A000001271FFA80F801EB1046B6F5803F00D3AE
:100A1000B94614F8010B294600F058F80028EBDA23
:100A2000BBF1000F05D00FB1641E00E05446CBF8B7
:100A30000040B9F1000F06D0FFF720FF022101604E
:100A4000C81EBDE8F09F48EA0640FAE72DE9F047E6
:100A500091460F4680460446002614F8015B2DB1EE
:100A6000FFF704FF0068405DC007F6D12B2D02D0D0
:100A70002D2D18D0641E4A4639462046FFF797FFB1
:100A800027B13968A14201D1C7F800804FF00204B4
:100A900071050BD54042002803DDFFF7EFFE04602F
:100AA000A007BDE8F08746F48066E4E70028F8DA9E
:100AB000FFF7E4FE04606FF00040F2E70048704783
:100AC0000C260020004870472C2600203A2800D22F
:100AD000303820F02002412A01D3A2F137008842A9
:100AE00001D34FF0FF3070477546FFF7E7FFAE4682
:100AF00005006946534620F00700854618B020B52A
:100B0000FFF7BAFBBDE820404FF000064FF00007AA
:100B10004FF000084FF0000B21F00701AC46ACE8A5
:100B2000C009ACE8C009ACE8C009ACE8C0098D4612
:100B3000704710B50446AFF300802046BDE8104072
:100B4000FFF785BB4FF0013C50F8042B51F8043BF4
:100B50009A4221D1A2EB0C03934313EACC1317D191
:100B600050F8042B51F8043B9A4215D1A2EB0C0328
:100B7000934313EACC130BD150F8042B51F8043BE8
:100B80009A4209D1A2EB0C03934313EACC13DBD0B6
:100B90004FF00000704700BFD01A01BAB1FA81F1DE
:100BA00001F0180122FA01F0CB40C1F12001DBB2C3
:100BB000C0B2C01A2CFA01F3D11A914311EAC31141
:100BC000E6D1704701491820ABBEFEE726000200BF
:100BD000704700002DE9F04F244887B00068244991
:100BE00088423FD1DFF884B00BF10C0BDBF80060DA
:100BF0000BF10408D8F80070ABF10409D9F80050E3
:100C0000DFF868A0AAF1080ADAF8004072B602F02C
:100C10000BF800200590009002200121CDE902018F
:100C2000049005A9684601F06BFF124A974204D16F
:100C300000234146022001F0B9FF32460023594605
:100C4000022001F0B3FF2A4600234946022001F0AA
:100C5000ADFF224600235146022001F0A7FF01F01C
:100C60009BFF62B607B0BDE8F08F0000E0BF000850
:100C7000424C4F52544F4F4230B597B0002315931A
:100C800000F068F81B4904464AF6AA20086072B6CC
:100C900002220093184B04929C4203D10322029239
:100CA000039202E00623CDE90232086001F0BCFFA6
:100CB00015A9684601F024FF054601F06DFF62B6F4
:100CC00075B10EA2402105A8159BFFF75FFB05A893
:100CD00000F0F4FF012000F049FD17B0284630BDB8
:100CE00023460FA2402105A8FFF750FB05A800F0FE
:100CF000E5FFF2E70030004000C000084552524FC7
:100D0000523A4572617365206661696C6564206161
:100D10007420736563746F7220256C750000000089
:100D20004572617365204F4B202830782530386C30
:100D3000582900000548054900681431884203D04D
:100D4000034A904200D0084670470000ECBF0008FC
:100D50000000040800B5FFF7EDFF0349884201D108
:100D6000024800BD084600BD00C00008000004089D
:100D7000004870470C5F000870B5050002D0FFF70F
:100D8000E1FC10B93CA05DE06D1C28782028FBD068
:100D90002846FFF7D7FC0028F4D03C4C20780128E7
:100DA00001D03BA04EE02846FFF7CCFCC10701D0A4
:100DB0003EA047E04608802E00D9802600222EE083
:100DC00015F8121005EB4200A1F130034078092B11
:100DD00001D8D9B20BE0A1F16103052B01D8573935
:100DE00004E0A1F14103052B2BD83739C9B2A0F19A
:100DF0003003092B01D8D8B20BE0A0F16103052B19
:100E000001D8573804E0A0F14103052B19D8373831
:100E1000C0B240EA01101D4980398854521CB242C8
:100E2000CED31A4932468039A06801F047FA68B13A
:100E300026A000F043FF05202070BDE8704000F0C0
:100E40006FBC27A0BDE8704000F038BFA0683044F8
:100E5000A060616800F012FFA068642148436168E7
:100E6000B0FBF1F0C0B201F041FBD4E90110BDE8E4
:100E7000704001F0ABBB00004552524F523A4D69F1
:100E80007373696E67206461746100006001002003
:100E90004552524F523A4E6F7420696E207265630C
:100EA00065697665206D6F64650000004552524F9C
:100EB000523A486578206C656E677468206D75736A
:100EC00074206265206576656E0000004552524FC1
:100ED000523A5772697465206661696C65640000F6
:100EE0004552524F523A496E76616C69642068658A
:100EF000780000002DE9F047CCB005000DD0FFF7D9
:100F000021FC50B1B04C2078012808D0AFA000BF20
:100F100000F0D4FE4CB0BDE8F087B3A0F8E7102293
:100F200000212846FFF7D5FB4FF00208E060064697
:100F300084F80080404600F0F3FBB0A000F0BEFE55
:100F4000022001F073FB4FF4FA7001F0C7FDFFF7C8
:100F500001FF0546FFF7EEFE03466068ABA2CDE950
:100F600000508021029607A8FFF710FA07A800F0AA
:100F7000A5FE287903AFEB79AA79697987E80F0094
:100F80006878EA78A9788DE807002B78AFA28021ED
:100F900007A8FFF7FBF907A800F090FE304601F024
:100FA000E7F80527012500287ED072B601F03CFE47
:100FB000002003904790CDE9498503A947A8CDF8C3
:100FC0002C8101F09DFD48B1ADA000F077FE01201D
:100FD00000F0CCFB01F0E0FD62B63CE0FFF7BAFEAA
:100FE000DFF8B8A20646024600235146022001F06F
:100FF000DDFDAAF10409002349460220226901F01F
:10100000D5FDDFF898820023A8F11408414602209C
:10101000626801F0CBFD01F0BFFD62B6DAF8003086
:10102000D9F80010D8F80020B34205D120698842D1
:1010300002D16068904213D020690096CDE901107A
:10104000974A802127A8FFF7A1F927A800F036FECC
:10105000022000F08BFB2770052000F061FB59E7B0
:10106000334690A2802127A8FFF790F927A800F027
:1010700025FE03F055FF082393A2002114200095BC
:1010800004F0E4F8082394A202210020009504F063
:10109000DDF8334695A2802127A8FFF777F90823CA
:1010A000042127AA002000E048E0009504F0CEF8D3
:1010B00092A2802127A86368FFF768F9082327AA6E
:1010C00005210020009504F0C1F808238FA2072114
:1010D0000020009504F0BAF804F012F890A000F097
:1010E000EDFD0320207000F01BFB03244FF47A7603
:1010F000234692A2802127A8FFF748F9082327AAB0
:1011000007210020009504F0A1F803F0F9FF304614
:1011100001F0E4FC641E002CEADC03F001FF08236C
:101120008CA203210A20009504F090F803F0E8FF58
:10113000C82001F0D3FC00F075FAEBE689A000F0BE
:10114000BDFD032000F012FB2770052000F0E8FA37
:1011500003F0E6FE082388A200211420009504F085
:1011600075F8082388A202210020009504F06EF88B
:10117000082389A204210020009504F067F8334673
:1011800030A2802107A8FFF701F9082307AA05214B
:101190000020009504F05AF8082382A206210020BE
:1011A000009504F053F827A2802107A82369FFF7D0
:1011B000EDF8082307AA07210020009504F046F85F
:1011C00003F09EFFA6E60000600100204552524F4A
:1011D000523A4E6F7420696E207265636569766558
:1011E000206D6F64650000004552524F523A4D69C0
:1011F0007373696E6720435243000000566572693D
:101200006679696E672E2E2E0000000056657269A1
:1012100066793A206163746976653D3078253038A7
:101220006C58207461726765743D30782530386C75
:10123000582073697A653D256C7520657870656303
:101240007465643D30782530386C5800466C6173A5
:10125000685B302D375D3A202530325820253032FA
:101260005820253032582025303258202530325829
:101270002025303258202530325820253032580071
:101280004552524F523A45726173652053656374FB
:101290006F722032206661696C656400ECBF0008E3
:1012A0007C7D00084F4B3A56657269667920706103
:1012B000737365642C206163746976653D307825AD
:1012C00030386C58000000003D3D3D2053554343ED
:1012D000455353203D3D3D004F54412055706461BE
:1012E000746520446F6E65210000000041637469DD
:1012F00076653A2030782530386C580053697A6525
:101300003A20256C752062797465730052657365A7
:101310007474696E6720696E2033732E2E2E000060
:10132000526573657420746F2072756E20617070E1
:101330006C69636174696F6E0000000052657365CB
:101340007474696E6720696E202564732E2E2E20BA
:10135000200000005374617274696E6720417070E0
:101360002E2E2E004552524F523A435243206D6961
:10137000736D6174636800003D3D3D204552524FDE
:1013800052203D3D3D000000435243204D69736DA6
:10139000617463682100000045787065637465645A
:1013A0003A00000043616C63756C617465643A00D7
:1013B00010B590B004000CD0FFF7C4F948B1204636
:1013C000FFF77AF9040002D0B4F5503F03D919A011
:1013D00010E01DA00EE0FFF7BDFC03461FA2402158
:1013E0006846FEF7D3FF684600F068FCFFF744FC50
:1013F00020B121A000F062FC10B010BD23480021F4
:10140000C0E9014101210170084600F089F920A0DE
:1014100000F054FC2146002000F030FC012001F0D7
:1014200005F9002001F062F82146002001F0CEF815
:10143000E2E700004552524F523A496E76616C69BC
:10144000642073697A6500004552524F523A4D69E3
:101450007373696E672073697A65000054617267FF
:10146000657420706172746974696F6E3A203078A7
:101470002530386C580000004552524F523A4572A0
:10148000617365206661696C65640000600100201D
:101490004F4B3A53746172740000000010B51C4C3D
:1014A000A2B01CA2D4E90101CDE90001237880217A
:1014B00002A8FEF76BFF02A800F000FC2069009074
:1014C0001DA2802102A8E368FEF760FF02A800F0D9
:1014D000F5FB94F82010E069CDE9000121A28021FC
:1014E00002A8A369FEF752FF02A800F0E7FBFFF78E
:1014F00021FC0346FFF72EFC009024A2802102A8C5
:10150000FEF744FF02A800F0D9FB22B010BD000096
:101510006001002053746174653A2025642C2053C7
:10152000697A653A20256C752C2052656365697669
:1015300065643A20256C75004352433A2045787023
:1015400065637465642030782530386C582C2043EE
:10155000616C63756C617465642030782530386C1B
:10156000580000004572726F72733A20256C752C1A
:101570002055415254204572726F72733A20256C87
:10158000752C204C6173743A2025640041637469A2
:1015900076653A2030782530386C582C20546172AA
:1015A0006765743A2030782530386C5800000000A8
:1015B00010B524210B48FFF72FF90A490020032218
:1015C00008704A7508498880C8800122074802F0DF
:1015D000A7FD07A000F072FBBDE810400BA000F0D3
:1015E0006DBB00006001002000000020980000207A
:1015F0003D3D3D20426F6F746C6F61646572207673
:10160000312E302E30203D3D3D0000005761697481
:10161000696E6720666F7220636F6D6D616E642EF8
:101620002E2E000070B51F4890B00168C903FCD48D
:10163000FFF780FB064603461BA240216846FEF7E3
:10164000A5FE684600F03AFB3568A5F10050B0F5FC
:10165000003F01D91AA006E07468A4F10060B0F55B
:10166000002F07D320A000F029FB042000F07EF813
:1016700010B070BD72B6264802F069FB254801F033
:10168000AFFC01220421244801F09DFC4FF0E02131
:10169000002048618861086185F308881F4806605A
:1016A000A047E5E70C3C02404A756D70696E672003
:1016B000746F2030782530386C582E2E2E000000A4
:1016C0004552524F523A496E76616C6964205350CC
:1016D0002C207374617920696E20626F6F746C6F57
:1016E00061646572000000004552524F523A496EE3
:1016F00076616C69642052657365742C2073746123
:101700007920696E20626F6F746C6F61646572001E
:1017100098000020440000200004024008ED00E092
:1017200070B5114D06281ED2DFE800F003050C034A
:101730000C12012200E000222846BDE8704004217E
:1017400001F041BC2846BDE87040042101F033BCE3
:1017500000240421284601F02EFC642001F0BEF98B
:10176000641C062CF5DB70BD000402402DE9FF4728
:10177000DFF878A08046DAF80040601C00D1002431
:101780001A4904F00700091D01EB0017CDF800808D
:1017900001F01EFCDFF85890019099F800000290CB
:1017A0000020039072B601F03FFA6E465FF000052C
:1017B00007EB850156F825200023022001F0F6F9F9
:1017C0006D1C042DF4D3621C00235146022001F04D
:1017D000EDF901F0E1F962B689F82080D9F8181026
:1017E000491CC9F81810BDE8FF87000080BF000839
:1017F0006001002030B5B1B0044603466DA240211F
:1018000021A8FEF7C3FD21A800F058FA09226BA118
:101810002046FEF7B6FF002847D009226AA12046DD
:10182000FEF7AFFF002847D008226AA12046FEF746
:10183000A8FF002846D0072269A12046FEF7A1FF95
:10184000002844D00A2268A12046FEF79AFF00280B
:1018500041D0052267A12046FEF793FF00283FD024
:10186000072266A12046FEF78CFF00284BD00822F5
:1018700064A12046FEF785FF002853D0062264A10C
:101880002046FEF77EFF002850D0042262A12046A9
:10189000FEF777FF002855D0042261A12046FEF70D
:1018A00070FF002877D060A039E000F01DFA64A036
:1018B00000F004FA67A032E004F10900FFF778FDB8
:1018C00031B030BD04F10800FFF756FAF8E7E01D2B
:1018D000FFF710FBF4E704F10A00FFF7DFFDEFE785
:1018E00063A000F0EBF9642001F0F8F8BFF34F8F2C
:1018F00063480168634A01F4E06111430160BFF38A
:101900004F8F00BFFDE7604900200090CDE9010145
:1019100001235EA2402103A8FEF738FD03A800F0D2
:10192000CDF9CDE700F0F2F961A0F8E700F0AAFBED
:10193000FFF700FA034668A240216846FEF726FD3D
:101940006846ECE7FFF7F6F90346FFF703FA6C4D3C
:101950000446AB4201D1412000E04220009069A240
:10196000802101A8FEF712FD01A800F0A7F9AC4202
:1019700001D1412000E042200090234669A280214D
:1019800001A8FEF703FD01A800F098F900F06CFB38
:1019900010B16CA301E007E06CA36EA2802101A846
:1019A000FEF7F4FC01A8BAE76EA000F087F903F097
:1019B00083FC85E7434D443A202573006F74615FD3
:1019C000656E7465720000006F74615F737461729C
:1019D000740000006F74615F646174610000000056
:1019E0006F74615F656E64006F74615F73746174BE
:1019F000757300007265736574000000766572731C
:101A0000696F6E00726F6C6C6261636B0000000046
:101A10007377697463680000696E666F0000000088
:101A200074657374000000004552524F523A556E6F
:101A30006B6E6F776E20636F6D6D616E640000007A
:101A40004F4B3A426F6F74206D6F646520736574FD
:101A500000000000526573657420746F20656E7419
:101A6000657220626F6F746C6F6164657200000054
:101A7000526573657474696E672E2E2E0000000027
:101A80000CED00E00400FA0520072620426F6F7479
:101A90006C6F61646572207625642E25642E256442
:101AA00020284275696C643A202530386C5829002A
:101AB0004F4B3A526F6C6C6261636B20666C61676E
:101AC000207365742C20726573657420746F2061B7
:101AD00070706C79000000004F4B3A537769746363
:101AE00068656420746F2030782530386C582C205D
:101AF000726573657420746F206170706C7900007A
:101B000000C000084163746976653A20307825305A
:101B1000386C582028506172746974696F6E202582
:101B2000632900005461726765743A20307825306B
:101B3000386C582028506172746974696F6E202562
:101B40006329000050454E44494E47004E6F6E6574
:101B500000000000526F6C6C6261636B3A20257369
:101B60000000000052756E6E696E672074657374B4
:101B7000732E2E2E0000000008B501F029FA009007
:101B800001F026FADFF8C090304C314F06464AF695
:101B9000AA284FF4FA7A4FF0000B00BFC9F8008072
:101BA00001F016FA801B50452DD90421294801F077
:101BB00002FA01F00DFA064625E000BF01F008FA2E
:101BC0000090C7F81CB00A2D0CD00D2D0AD06088EB
:101BD00041F26701884211D21D4924310D54401C45
:101BE000608010E0608870B119495D46243101F8C9
:101BF00000B00846FFF7FEFD658004E00620FFF711
:101C0000B5FDA4F802B0A188E088814209D012484D
:101C1000E188455CE088401CC0F30B00E080681C54
:101C2000CCD138780028B9D101F0D2F9014600981A
:101C3000081A41F288318842B0D908A000F03EF875
:101C400001F0C6F90090A9E7003000400000002034
:101C50006001002000040240EC11002054696D6511
:101C60006F75742C2077616974696E6720666F7276
:101C700020636F6D6D616E642E2E2E0000B56422A0
:101C80004243B2FBF1F393B005A2CDE9000140213C
:101C900002A8FEF77BFB02A800F010F813B000BD0D
:101CA00050726F67726573733A20256C7525252015
:101CB00028256C752F256C752900000010B5044689
:101CC000FEF740FD82B264232146054802F058FA2F
:101CD0006423BDE81040022202A1014802F050BA7C
:101CE000980000200D0A000010B572B600F09CFFAD
:101CF000044A00230449022000F058FF00F04CFF82
:101D000062B610BD544F4F42F0BF00082DE9F047B6
:101D100086B0FFF70FF8244F82463E68DFF88880D0
:101D2000A8F10808D8F80050DFF87C90A9F118094C
:101D3000D9F8004072B600F077FF002005900090BF
:101D400002200121CDE90201049005A9684600F0B6
:101D5000D7FE164A964204D100233946022000F0ED
:101D600025FF114952460023091F022000F01EFFE3
:101D70002A4600234146022000F018FF2246002395
:101D80004946022000F012FF0749094A0023103992
:101D9000022000F00BFF00F0FFFE62B605A0FFF787
:101DA0008DFF06B0BDE8F087F0BF0008544F4F42EA
:101DB000424C4F52536574526F6C6C6261636B207E
:101DC0004F4B0000F0B5A1B0474C484D009548A2DC
:101DD000802101A82368FEF7D9FA01A8FFF76EFF5A
:101DE0002068A84201D14CA003E000F03DF918B1F1
:101DF00050A0FFF763FF6EE0FEF79CFF044603462A
:101E000054A2802101A8FEF7C1FA01A8FFF756FFEE
:101E100060680090251D55A2802101A82368FEF767
:101E2000B5FA01A8FFF74AFF2068A0F10050B0F50D
:101E3000003F01D955A006E02868A0F10060B0F588
:101E4000002F04D356A0FFF739FF042041E0264EAF
:101E5000254D183E083D3068009057A2802101A80A
:101E60002B68FEF793FA01A8FFF728FF2F68781C6C
:101E700009D047B13068411C07D030B14FF0FF3175
:101E80000023544E11E054A020E058A01EE0E25C74
:101E9000514000225FEAC17C02D086EA510100E095
:101EA0004908521C082AF5DB5B1C8342EFD3CC4364
:101EB000234653A2802101A80097FEF767FA01A8E4
:101EC000FFF7FCFE2868A04208D058A0FFF7F6FEF6
:101ED0000320FFF74BFC012021B0F0BD58A0FFF715
:101EE000EDFE0020F8E70000F0BF0008544F4F421D
:101EF00044656275673A206D616769633D30782596
:101F000030386C58202865787065637420307825E7
:101F100030386C582900000044656275673A2045E6
:101F20006E7465722064756520746F206D616769D9
:101F30006300000044656275673A20456E746572FF
:101F40002064756520746F20726F6C6C6261636BC6
:101F50000000000044656275673A20616374697629
:101F6000653D30782530386C580000004465627556
:101F7000673A2053503D30782530386C58205265F0
:101F80007365743D30782530386C5800446562754F
:101F9000673A20496E76616C6964205350000000F6
:101FA00044656275673A20496E76616C69642052B7
:101FB000657365740000000044656275673A2043EC
:101FC00052433D30782530386C582053697A653D4E
:101FD000256C75002083B8ED44656275673A204929
:101FE0006E76616C696420435243000044656275FB
:101FF000673A20496E76616C69642053697A65009E
:1020000044656275673A2063616C635F4352433D88
:1020100030782530386C582073746F7265645F4374
:1020200052433D30782530386C5800004465627565
:10203000673A20435243206D69736D617463680091
:1020400044656275673A20416C6C20636865636B18
:1020500073207061737365642C206A756D702074D1
:102060006F20415050000000044805490068884234
:1020700001D101207047002070470000E0BF000838
:10208000424C4F522DE9F04F9BB0FEF763FEDFF854
:10209000A8800446D8F80010A14201D127A045E04D
:1020A000DFF8949009F10409D9F80070DFF888A0EE
:1020B000AAF1040ADAF80060DFF87CB0ABF1140B87
:1020C000DBF8005072B600F0AFFD002019901190BF
:1020D00002200121CDE91301159019A911A800F0E2
:1020E0000FFD2246002344464146022000F05EFDDB
:1020F000194A974204D100234946022000F056FDB8
:10210000324600235146022000F050FD2A460023AB
:102110005946022000F04AFD00F03EFD62B62368F9
:102120000EA240216846FEF731F96846FFF7C6FD6A
:102130001BB0BDE8F08F0000ECBF0008416C726579
:1021400061647920617420746172676574207061C4
:1021500072746974696F6E00544F4F42537769749B
:102160006368204F4B3A2030782530386C58000097
:102170002DE9F041A8B006464FF0FF35FEF7EAFD25
:10218000DFF8A08003460446D8F8047026A2802118
:1021900007A80097FEF7FAF807A8FFF78FFD207948
:1021A0000DF10C0CE379A27961798CE80F0060786D
:1021B000E278A1788DE80700237823A2802107A880
:1021C000FEF7E4F807A8FFF779FD00202B4A0CE0A2
:1021D000215C4D400021EB0702D082EA550500E06A
:1021E0006D08491C0829F6DB401CB842F0D3EC43CB
:1021F000C8F81040B44201D121A000E021A0CDE9EF
:102200000060234620A2802107A8FEF7BFF807A898
:10221000FFF754FDB44203D1012028B0BDE8F0819E
:102220000020FAE7600100204352433A2063616CCA
:10223000632066726F6D2030782530386C582073BB
:10224000697A653D256C7500446174615B302D379A
:102250005D3A202530325820253032582025303242
:102260005820253032582025303258202530325819
:102270002025303258202530325800002083B8ED18
:10228000594553004E4F00004352433A2063616C5E
:1022900063756C617465643D30782530386C582006
:1022A00065787065637465643D30782530386C58A6
:1022B000206D617463683D25730000002DE9F043D3
:1022C000A7B01746894603464FF00008FEF742FDC7
:1022D000C418414AE119914203D90220FFF746FA96
:1022E00061E0002B1FD18DE8980003463BA28021BE
:1022F00007A8FEF74BF807A8FFF7E0FC207903AD2D
:10230000E379A279617985E80F006078E278A178B5
:102310008DE8070023783FA2802107A8FEF736F852
:1023200007A8FFF7CBFC72B600F07EFC00264BE05E
:102330000025284608E000BF19F80110C2009140AE
:102340000D43401C042802DA3118B942F4D3A11914
:102350002A460023022000F029FC5FEA00080ED084
:10236000A3193AA2402101A8CDF80080FEF70EF88B
:1023700001A8FFF7A3FC0220FFF7F8F926E0A05917
:10238000A84214D0CDE90050A31939A2402102A8D7
:10239000FDF7FCFF02A8FFF791FC0220FFF7E6F92A
:1023A00000F0FAFB62B6012027B0BDE8F08356B911
:1023B000CDE9005023463CA2402102A8FDF7E6FFEC
:1023C00002A8FFF77BFC361DBE42B1D300F0E4FB50
:1023D00062B64046E8E70000FFFF070857726974DD
:1023E000653A207461726765743D30782530386CC9
:1023F0005820616464723D256C7520666C61736859
:102400003D30782530386C58206C656E3D256C75F4
:10241000000000004265666F72655B302D375D3AE3
:10242000202530325820253032582025303258208F
:10243000253032582025303258202530325820257A
:10244000303258202530325800000000577269742D
:1024500065204641494C3A20616464723D307825DC
:1024600030386C58207374617475733D25640000B6
:10247000566572696679204641494C3A2061646428
:10248000723D30782530386C582077726F74653D16
:1024900030782530386C5820726561643D3078257D
:1024A00030386C5800000000466972737420776FF2
:1024B00072643A20616464723D30782530386C581B
:1024C0002077726F74653D30782530386C582072F3
:1024D0006561643D30782530386C5800FEE7704700
:1024E0000149002008707047080000202DE9F84FCE
:1024F0000746324841788F425DD04770642F00D93B
:1025000064274FF0040812244FF0780A052608EBE0
:102510000A0004F10109A0F1010B0A340CE04D4658
:1025200006E0E9B2F0B2002202F05CFD6D1CADB233
:10253000A542F6D3761CB6B2B345F0DCAAF1020090
:1025400010FB07F0642190FBF1F080B208F1010567
:10255000404400F101080CE04E4606E0F1B2E8B25A
:10256000012202F03FFD761CB6B2A642F6D36D1CE6
:10257000ADB2A845F0D83B4611A220211248FDF784
:1025800005FF1148FEF7DEF800EB40004FF6FF7143
:1025900001EA4000C0F18000012100EBD070009101
:1025A000C0F347000823084A032102F04FFEBDE8AC
:1025B000F84F02F0A5BDBDE8F88F0000080000202C
:1025C0002564252500000000EC21002008B5B1F5A8
:1025D000806F03D203460BA2009103E0890A830AAD
:1025E0000CA2009120211048FDF7D0FE01200090A0
:1025F00008230D4A0521002002F028FEBDE808400E
:1026000002F07EBD53697A653A20256C752F256CE2
:102610007520420053697A653A20256C752F256C28
:1026200075204B4200000000EC21002038B5144911
:102630000124042808700ED2DFE800F0020611150C
:10264000082310A2009402E0082313A200940121A1
:10265000002002F0FBFDBDE8384002F051BD082328
:1026600012A20094F3E7082316A20121002000948F
:1026700002F0ECFD082317A207210094E8E7000010
:10268000080000205374617475733A2057616974AF
:10269000696E672E2E2E00005374617475733A2094
:1026A000526563656976696E6700000053746174F2
:1026B00075733A20566572696679696E672E2E2E9B
:1026C000000000005374617475733A2052656164B0
:1026D00079210000526573657420746F20617070F9
:1026E0006C79202020202000F8B502F019FC2EA5DE
:1026F0002846FEF727F800EB40004FF6FF7101EA8D
:102700004000C0F1800000EBD0700124C0F347000E
:1027100008232A460021009402F098FD082327A2EE
:1027200001210020009402F091FD12237C2519461E
:1027300004202A46009402F007FC1C26334604209D
:102740002A461946009402F0FFFB0422122110468B
:102750003346009402F0F8FB2A4612213346104615
:10276000009402F0F1FB082319A203213420009405
:1027700002F06CFD082317A205210020009402F04E
:1027800065FD082317A206210020009402F05EFDDB
:10279000082318A207210020009402F057FDBDE88D
:1027A000F84002F0ADBC00003D3D3D204F544120BB
:1027B000557064617465203D3D3D00005374617443
:1027C00075733A2057616974696E672E2E2E00006A
:1027D0003025000053697A653A20302F30204B4273
:1027E0000000000053706565643A203020422F736A
:1027F0000000000050726573732042544E20746FC5
:102800002063616E63656C00002229B101291AD032
:1028100002291BD04FF440720E490B6823F4407319
:102820000B600B6813430B600A6822F078020A60A1
:102830000A68022303EBC00002430A60086840F400
:102840008030086070474FF48072E5E74FF4007203
:10285000E2E70000103C02401348016889050FD5EB
:10286000016821F400710160016841F400610160B8
:10287000016821F400610160016841F400710160A8
:10288000016849050FD5016821F480610160016884
:1028900041F480510160016821F4805101600168B8
:1028A00041F4806101607047003C024008490A68B9
:1028B00022F440720A600A6842F004020A600A6860
:1028C0004FF4803343EA002002430A60704700005F
:1028D000103C0240064A136823F4407313601368E7
:1028E0001360136843F00103136001707047000028
:1028F000103C0240094910B50C6824F440740C6087
:102900000C6844F440740C600C6844F001040C60E2
:102910000260BFF36F8F436010BD0000103C0240A7
:10292000074A136823F440731360136843F48073F9
:102930001360136843F001031360018070470000C7
:10294000103C0240074A136823F440731360136875
:1029500043F400731360136843F0010313600160D4
:1029600070470000103C024017490868C20617482B
:1029700005D5C26942F01002C26110220A600A68DD
:10298000920605D5C26942F00802C26120220A609F
:102990000A68520605D5C26942F00402C2614022AB
:1029A0000A600A68120605D5C26942F00202C261D5
:1029B00080220A600A68920705D5C26942F02002A7
:1029C000C2610220086070470C3C024014000020E5
:1029D00070B5114904460020C86100F0F9FA0646B6
:1029E0000E4D09E0601C07D024B100F0F1FA801B05
:1029F000A04201D9032070BD2868C003F2D4286822
:102A0000C00701D001202860286810F0F200F2D041
:102A1000FFF7AAFF012070BD140000200C3C02400B
:102A20002DE9F0410446876D00F0D2FA064694F88D
:102A300035000025022806D08020606584F83450D7
:102A40000120BDE8F0812068016821F016010160D5
:102A50002068416921F080014161206C08B9A06CB7
:102A600020B12068016821F0080101602068016838
:102A700021F0010101600CE000F0AAFA801B05289A
:102A800007D920206065032084F8350084F834508D
:102A9000D7E720680068C007EED194F85C103F20AB
:102AA0008840B860012084F8350084F83450002054
:102AB000C7E790F83510022903D080214165012035
:102AC0007047052180F835100068016821F0010188
:102AD00001600020704790F83500704770B50446DB
:102AE00000F076FA0546601C02D0044800780444E1
:102AF00000F06EFA401BA042FAD370BD34000020F3
:102B00002DE9F047044622480F46017E01290AD0EC
:102B10000121804601764CF250394846FFF758FFB4
:102B2000020003D02FE00220BDE8F0874FF0FF3015
:102B300038602068174D012801D0A6681CE0207C71
:102B40006168FFF7B3FE4846FFF742FF0246286878
:102B500020F00400286014E0217C3046FFF754FE8A
:102B60004846FFF735FF0200286820F07A00286009
:102B700001D03E6005E0761CD4E902100844B04262
:102B8000EAD8FFF769FE002188F818101046CBE755
:102B900014000020103C02400348016841F000414D
:102BA0000160002070470000103C02402DE9F04712
:102BB0001B4E05461446307E1F468946012808D024
:102BC000012030764CF250384046FFF701FF18B133
:102BD00014E00220BDE8F0879DB1012D16D0022D32
:102BE00019D022463B464846FFF784FE4046FFF791
:102BF000EFFE0C490A6822F001020A6000213176DA
:102C0000E8E7E1B24846FFF765FEEFE7A1B24846C4
:102C1000FFF786FEEAE721464846FFF793FEE5E721
:102C200014000020103C0240074900200A68002AD6
:102C300009DA054A054B0C3A1360054B1360096825
:102C4000002900DA01207047103C0240230167454B
:102C5000AB89EFCD2DE9F04F0022DFF838B1012626
:102C60004FF00F0906FA02F401EA0403A3427DD1F2
:102C700022F003075F44D7F8088895074FEA157CD0
:102C800009FA0CFA0AEA0805DFF80C81404502D17E
:102C90004FF0000832E0DFF80481404502D14FF0E8
:102CA00001082BE0DFF8F880404502D14FF0020820
:102CB00024E0DFF8F080404502D14FF003081DE02A
:102CC000DFF8E480404502D14FF0040816E0DFF859
:102CD000DC80404502D14FF005080FE0DFF8D080DE
:102CE000404502D14FF0060808E0DFF8C8804045B3
:102CF00002D14FF0070801E04FF0080808FA0CF87D
:102D0000A84522D12C4DD5F800C02CEA030CC5F8FB
:102D100000C005F1040CDCF800509D43CCF80050D5
:102D2000254D0C35D5F800C02CEA030CC5F800C0C1
:102D30002D1FD5F800C02CEA030CC5F800C0D7F849
:102D4000085825EA0A05C7F80858056857000323FC
:102D5000BB409D430560D50800EB8505D5F820C034
:102D600057074FEAD76809FA08F700E00CE02CEAA9
:102D7000070CC5F820C0C5689D43C5604568A543DC
:102D8000456084689C438460521C102AFFF46AAF3B
:102D9000BDE8F08F00300140000002400004024016
:102DA00000080240000C02400010024000140240E3
:102DB00000180240001C0240003C01402DE9F84F81
:102DC000DFF8BCA10022012503264FF00F090AF10C
:102DD000040BAAF1040E00BF0B6805FA02F42340AD
:102DE000A34270D10F7907F00307012F01D0022F02
:102DF00016D187684FEA420806FA08FC27EA0C0752
:102E0000D1F80CC00CFA08FC4CEA070CC0F808C05A
:102E10004768A7430C79C4F3001494403C434460D2
:102E20000C79E443A4070AD0C4684FEA420C06FABE
:102E30000CF7BC438F6807FA0CF72743C7600C797F
:102E400004F00304022C12D1D40800EB840CDCF84B
:102E500020405707FF0E09FA07F824EA0804D1F8C2
:102E6000108008FA07F848EA0408CCF820800468C3
:102E70004FEA420C06FA0CF7BC430F7907F0030740
:102E800007FA0CF7274307604C6814F4403F70D0F2
:102E90003C4C276847F480472760246822F00307EA
:102EA00004F480440094384C07EB040CDCF8084828
:102EB00097074FEA177809FA08F7BC43334FB8422F
:102EC00002D1002724E054E0314FB84201D101275C
:102ED0001EE0304FB84201D1022719E02E4FB84210
:102EE00001D1032714E02D4FB84201D104270FE090
:102EF0002B4FB84201D105270AE02A4FB84201D131
:102F0000062705E0284FB84201D1072700E008272F
:102F100007FA08F72743CCF80878DAF80040574654
:102F2000D1F804C09C435FEACC2C00D51C433C6024
:102F3000DBF800405F46D1F804C09C435FEA8C2C6C
:102F400000D51C433C60DEF800407746D1F804C051
:102F50009C435FEA8C3C00D51C433C60084F083F13
:102F60003C68D1F804C09C435FEACC3C00D51C43CC
:102F70003C60521C102AFFF42FAFBDE8F88F000010
:102F8000083C01404438024000300140000002404B
:102F90000004024000080240000C02400010024001
:102FA0000014024000180240001C02400069084062
:102FB00000D001207047426921EA02030A4043EA37
:102FC0000241816170470AB1816170470904FBE7E2
:102FD0000148806870470000340000207047704747
:102FE00010B5040013D0242084F83D002068016847
:102FF00021F001010160204600F0E2FA0020206487
:1030000084F83D0044F8300FA073207310BD0120F8
:1030100010BD2DE9F041016804464A694E6890F8F8
:103020003E000025D743FA0506D4F243D20503D467
:103030006FF4807201254A61B90508D4F143C905CE
:1030400005D422686FF4007145F0020551617905DD
:1030500025D4F143C90522D4638D94F83D10226B29
:10306000202808D13BB9212910D029290ED02829A0
:1030700001D1212A0AD022686FF48061516145F0A4
:103080000405102806D0402804D008E0204601F0AE
:103090001BFD04E02068016841F4007101603805FF
:1030A00008D4F043C00505D421686FF4006045F0F2
:1030B00008054861002D07D0206C28432064204675
:1030C000BDE8F04101F020B9BDE8F0812DE9F047FD
:1030D000026800215368C66A90F83E4090F83D505F
:1030E000102C12D0402C10D0046C002C7DD05469D0
:1030F000E443A6077AD4DE43B60577D4036C03B164
:103100009169BDE8F04701F0BBBC976951694FF484
:103110002A0CC9435FEAC1784FF02A4904D06645BA
:103120002AD04E4528D010E0DE43B6050DD4C16A42
:10313000614501D1012103E0C16A494501D108215E
:10314000C162BDE8F04701F001BC0E0716D4DE43B2
:10315000B60513D4416CC9B21161416B09B1C96B99
:1031600029B9816B002907D0C96B002904D00068F8
:10317000416841F400614160BDE8F0878E0706D4E4
:10318000DE43B60503D4BDE8F04701F053BBFE4370
:10319000526876074FEA02521DD4002AECDB0A0679
:1031A00008D4DA43520505D4490705D5BDE8F047F0
:1031B00001F0E4BA4907DFD4D9438905DCD4212DD5
:1031C00005D0402CD8D1BDE8F04701F005BCBDE8E2
:1031D000F04701F091BA002ACEDB4A060BD4DA435D
:1031E000520508D4490708D501E00DE00EE0BDE81E
:1031F000F04701F0B9B94907BED4D9438905BBD41A
:10320000BDE8F04701F043B9916970E7E10606D4E3
:10321000D943890503D4BDE8F04701F09DBC2821BE
:10322000212D27D0292D25D0650655D4DD436D05E8
:1032300052D4640752D590F83D30448D002C9BD079
:103240001269446A2270426A521C4262428D521EC6
:103250004285428D002A8FD12A2B8DD10268536876
:1032600023F4806353602222026380F83D1000F053
:103270000DFA81E7250623D4DD436D0520D46407CC
:1032800020D590F83D30448D002CF2D0446A24784B
:103290001461426A521C4262428D521E4285428D26
:1032A000002AE6D1292BE4D10268536823F4806315
:1032B00053602122026380F83D1000F0E8F95BE7DB
:1032C0006107D6D4D9438905D3D4418D0029D0D004
:1032D000416A097811610AE06107CAD4D9438905B6
:1032E000C7D4418D0029C4D01169426A1170416A66
:1032F000491C4162418D491E41853DE770470000F0
:1033000070B5040025D094F83D00002520B984F85C
:103310003C50204600F076F9242084F83D002068D7
:10332000016821F0010101602068016841F4004159
:1033300001602068016821F40041016000F0ECFAAE
:103340004D4A6168914201D84C4900E04C4988429D
:1033500001D2012070BD4B492368B0FBF1F15E68DA
:1033600026F03F060E435E606368934206D94FF431
:10337000967359434FF47A73B1FBF3F12368491CF8
:103380001E6A26F03F06314319626168914210D8E7
:103390004900401EB0FBF1F2521CC2F30B02042A9A
:1033A00001D2042022E0B0FBF1F0401CC0F30B007E
:1033B0001CE0A268F2B301EBC10303EB0116431E4C
:1033C000B3FBF6F35B1C43F480431B0549D092B377
:1033D00001EBC10202EB0111401EB0FBF1F0401CF9
:1033E000C0F30B0040F4804040F400402168CA69FB
:1033F0004CF6FF739A431043C861D4E907100143A8
:103400002068026822F0C00211430160D4E9030180
:1034100001432068826848F2FF339A431143816078
:10342000D4E9050108432168CA6822F0FF0210436D
:10343000C86001E00EE016E02068016841F001017B
:1034400001602564202084F83D00256384F83E5007
:10345000002070BD01EB4106431EB3FBF6F35B1C7D
:10346000B3E70120C2E701EB4101401EB0FBF1F0E0
:10347000401CC0F30B00B7E7A086010080841E004B
:1034800000093D0040420F00704770477047000040
:103490002DE9F84F1F4690468A460446DDF82890ED
:1034A000FFF796FD054694F83D0020287FD11923AB
:1034B000012240492046009501F028FC002876D1E1
:1034C00094F83C00012872D0012084F83C00206868
:1034D0000168C90703D1016841F00101016020685A
:1034E000016821F400610160212084F83D00102072
:1034F00084F83E0000262664C4F824806785608D29
:1035000020852D48E0622B464A465146204601F070
:10351000A5F890B9206841698069009036E02A4694
:103520004946204601F098FC50B1206C042804D193
:103530002068016841F4007101600120BDE8F88F46
:10354000606A216800780861606A401C6062618D71
:10355000491E6185218D491E89B2218522685369E2
:10356000DB435B070BD451B100781061606A401CEB
:103570006062608D401E6085208D401E20852A4639
:103580004946204601F096FB0028CED1208D002828
:10359000C5D154F83D0B016841F400710160202051
:1035A00004F81E09E67766770020C7E7FFE70220E8
:1035B000C4E70000020010000000FFFF70477047E2
:1035C00010B500680C49884215D10C48016821F4F7
:1035D000001101600A4C40212046FFF73BFB80218F
:1035E0002046FFF737FB1F2000F0ACF8BDE8104085
:1035F000202000F0A7B810BD005400404038024021
:103600000004024010B586B0044614216846FDF758
:1036100003F91B492068884230D11A48002102680A
:1036200042F002020260006800F002000590C02033
:1036300000901220CDE901010320039004200490A2
:1036400069461148FFF7BAFB0E481030016841F493
:10365000001101600068002200F40010059011467E
:103660001F2000F08DF81F2000F07DF80022114689
:10367000202000F085F8202000F075F806B010BD7D
:103680000054004030380240000402407047704748
:10369000024881680278114481607047340000203C
:1036A0000B4810B5016841F400710160016841F4F4
:1036B00080610160016841F480710160032000F0C5
:1036C0007FF80F2000F006F800F024F8002010BD6D
:1036D000003C024070B50D4D04464FF47A712878D5
:1036E000B1FBF0F00A490968B1FBF0F000F01AFBF9
:1036F00048B9102C07D200222146501E00F040F895
:1037000000206C6070BD012070BD000034000020FE
:10371000400000200A4808B5016841F4804101607A
:10372000006800F4804000900548001F016841F0E7
:1037300080510160006800F08050009008BD0000DA
:103740004438024000280DDB00F01F0201219140A7
:103750004009800000F1E020C0F88011BFF34F8FD6
:10376000BFF36F8F7047002809DB00F01F020121B3
:1037700091404009800000F1E020C0F8001170473E
:10378000F0B40E4B1B680C46C3F30223C3F10705CC
:10379000042D00D90425191D072901D2002300E0BA
:1037A000DB1E012606FA05F1491E214099409E4084
:1037B000761E16403143F0BC02F00FB90CED00E06C
:1037C000064900F0070208684FF6FF03184040EA78
:1037D0000220034A10430860704700000CED00E02F
:1037E0000000FA052DE9F0470E46050065D0DFF828
:1037F0001481D8F80000F7B200F00700B04207D2F9
:1038000088F80070D8F8000000F00700B04254D1EA
:1038100028683D4C810712D5400703D5206840F445
:10382000E05020602878000703D5206840F460400D
:1038300020602068A96820F0F00008432060287804
:10384000C0072DD0304968680839012812D00228F5
:1038500013D0032811D00968890700292DDA2168BF
:1038600021F0030101432160FFF7B2FB814641F2E1
:10387000883A0EE009688903EFE709688901ECE7F7
:10388000FFF7A6FBA0EB0901514502D90320BDE8D3
:10389000F0872068696800F00C00B0EB810FEFD171
:1038A000D8F80010404601F00701B14207D907706F
:1038B000006800F00700B04201D00120E7E7287857
:1038C000400705D52068E96820F4E05008432060EF
:1038D0002878000706D52068296920F4604040EA6E
:1038E000C100206000F038F82168084AC1F30311D4
:1038F000515CC8400649086006480068FFF7EAFEC8
:103900000020C4E7003C024008380240287D00083F
:10391000400000203800002004480549006809687C
:10392000044AC1F38221515CC84070474000002026
:1039300008380240387D00080448054900680968D5
:10394000044AC1F34231515CC84070474000002036
:1039500008380240387D0008154810B5006810F09E
:103960000C02144813D04110042A0FD0082A0ED19B
:103970000F4C241F2268236802F03F025B0207D528
:103980002068C0F38810A0FB010106E0084610BDC6
:103990002168C1F38811A1FB00010023FCF77EFC24
:1039A0002168C1F30141491C4900B0FBF1F010BD91
:1039B000083802400024F4002DE9F84F04006ED0CE
:1039C0002078DFF84C93C007A9F104054AD009F12B
:1039D00004000168C1F38101012908D00068C0F327
:1039E000810002280AD1D9F80000400206D52868D3
:1039F000800337D560680028E1D033E06068B0F517
:103A0000803F10D0B0F5A02F286810D020F480306F
:103A10002860286820F4802028606068A8B1FFF73B
:103A2000D7FA06460DE0286840F48030F4E740F409
:103A300080202860F7E700BFFFF7CAFA801B6428E0
:103A400073D828688003F7D50CE0FFF7C1FA064663
:103A500005E000BFFFF7BCFA801B6428F0D8286897
:103A60008003F7D42078DFF8AC8280074FF0000A9B
:103A70003ED5A748001D016811F00C0F08D0006862
:103A8000C0F3810002280BD1D9F80000400207D40E
:103A90002868800716D5E068012800D112E033E1DC
:103AA000E068B8B10120C8F80000FFF791FA0646B7
:103AB00005E000BFFFF78CFA801B0228C0D82868F9
:103AC0008007F7D52868216920F0F80040EAC10096
:103AD00028600DE0C8F800A0FFF77AFA064604E077
:103AE000FFF776FA801B02281FD828688007F7D4D2
:103AF0002078000722D5864F87486169703771B1F9
:103B000001210160FFF764FA064604E0FFF760FA5E
:103B1000801B022809D838688007F7D50EE0C0F866
:103B200000A0FFF755FA064605E082E0FFF750FADD
:103B3000801B02287DD838688007F7D4207840079A
:103B400068D5DFF8CCB100270BF13C0BDBF80000A7
:103B5000C0000BD4DBF8001041F08051CBF800100E
:103B6000DBF80000012700F0805000906B4E3068B9
:103B7000C00510D4306840F480703060FFF728FA38
:103B8000009005E0FFF724FA0099401A022850D867
:103B90003068C005F6D55E4EA0686C3601280FD09F
:103BA0000528306810D020F001003060306820F027
:103BB00004003060A068B8B1FFF70AFA00900FE087
:103BC000306840F00100F4E740F004003060F7E7AF
:103BD000FFF7FEF90099411A41F28830814266D818
:103BE00030688007F4D50EE0FFF7F2F9009007E0A7
:103BF000FFF7EEF90099411A41F28830814256D818
:103C000030688007F4D42FB1DBF8001021F0805128
:103C1000CBF80010A069C8B33D49091D0968C1F37C
:103C2000810102294AD00228504607D0C8F8600016
:103C300000E03CE0FFF7CCF904463BE04746C8F81B
:103C40006000FFF7C5F9064605E000BFFFF7C0F9C1
:103C5000801B02282BD828688001F7D4D4E90701FB
:103C60000843A16A2E4A490802EB0141626A41EA0F
:103C70008211084394F82C1040EA0161C9F8001041
:103C800001203866FFF7A4F9044606E03EE000BFD5
:103C9000FFF79EF9001B022809D828688001F7D594
:103CA00034E000BFFFF794F9001B022802D903207B
:103CB000BDE8F88F28688001F4D427E00128F7D008
:103CC000D9F80000E26900F4800191421CD1226A17
:103CD00000F03F01914217D147F6C071626A01407E
:103CE000B1EB821F10D1A26A4FF0FF3300F44031D4
:103CF00003EB5202B1EB024F06D194F82C1000F006
:103D00007060B0EB016F01D00120D1E70020CFE758
:103D10000438024000004742800E474200700040D5
:103D20000000FFFF10B5401EB0F1807F01D30120DD
:103D300010BD4FF0E02460610F21601701F04DFECF
:103D40000020A06107202061002010BD704710B541
:103D5000040015D0242084F841002068C16821F4B3
:103D60000051C160204600F081F90020606484F8B1
:103D7000410084F8420044F8300F6060207410BDA8
:103D8000012010BD70470000F8B5016804460868BE
:103D9000CA684B6910F00F0F4FF0000559D003F0BF
:103DA000010602F49077374365D0C10705D0D105ED
:103DB00003D5616C41F001016164410705D5D90764
:103DC00003D0616C41F002016164810705D5D90718
:103DD00003D0616C41F004016164010707D502F072
:103DE0002001314303D0616C41F008016164616CD2
:103DF00000293AD0800604D5900602D5204601F06D
:103E0000A9FC20684069616CC0F38010090700D4E8
:103E100060B3204601F077FC20684069400621D558
:103E20002068143050E8001F21F0400140E80012E3
:103E3000002AF5D1E06BA8B172490165E06BFEF78D
:103E400038FE002811D0E06B016D01B0BDE8F040F4
:103E5000084783060FD593060DD52046BDE8F840E8
:103E600001F078BC2046FFF78DFFF8BD2046FFF734
:103E700089FF6564F8BD266B2023012E7ED1C6061E
:103E80007CD5D6067AD508684868009048694FF016
:103E9000020640064DD5E26B106840684FF480770B
:103EA0000004000C3AD0A18D814237D9E085D06959
:103EB000B8422DD020680C3050E8001F21F48071EA
:103EC00040E80012002AF5D12068143050E8001FA5
:103ED00021F0010140E80012002AF5D120681430D9
:103EE00050E8001F21F0400140E80012002AF5D1FF
:103EF00084F84230256320680C3050E8001F21F020
:103F0000100140E80012002AF5D1E06BFEF788FDB1
:103F10006663A08DE18D401A81B206E0A18D8142D9
:103F2000A8D1D069B842A5D166632046FFF70EFF3D
:103F3000F8BDA08DE18D401A81B2E08D0028F7D048
:103F40000029F5D020680C3050E8002F22F4907240
:103F500040E80027002FF5D12068143050E8002FEA
:103F600022F0010240E80027002FF5D184F842300A
:103F7000256320680C3050E8002F00E006E022F0B6
:103F8000100240E80023002BF3D1CDE705062BD526
:103F9000150629D594F841002128C9D1A068B0F5AB
:103FA000805F01D12069B0B1206A411C2162216883
:103FB00000784860E08C401E0004000CE084B7D11B
:103FC0002068C16821F08001C1602068C16841F0AB
:103FD0004001C160F8BD206A0088C0F30800486055
:103FE000206A801C2062E5E74006F3D55006F1D533
:103FF000CA68204622F04002CA6084F8413000F0CE
:104000000FF9F8BDF956000870B5040004D094F813
:104010004100002510B106E0012070BD84F8405039
:10402000204600F03FF8242084F841002068C16851
:1040300021F40051C160204601F0EEFB20680169C7
:1040400021F4904101612068416921F02A01416118
:104050002068C16841F40051C1606564202084F883
:10406000410084F842006563002070BD10B500680F
:10407000094988420ED10948016821F01001016008
:104080004FF4C0610648FEF7E5FDBDE8104025206D
:10409000FFF758BB10BD000000100140443802403B
:1040A0000000024010B586B0044614216846FCF7B3
:1040B000B3FB18492068884229D1174800210268BB
:1040C00042F010020260006800F0100005901248F3
:1040D0001438026842F001020260006800F001003A
:1040E00005904FF4C06000900220CDE9010103204B
:1040F00003900720049069460848FEF75FFE0022FF
:1041000011462520FFF73CFB2520FFF72CFB06B0CE
:1041100010BD000000100140443802400000024081
:1041200090F84230202B01D00220704721B11AB103
:104130000023036301F0F6BB0120704730B4006830
:104140000B49884212D10B488188C288491CC1F3AF
:104150000B01914204D00278074B84881A55818064
:1041600030BC012203490548FFF7DABF30BC704775
:104170000010014000000020EC11002098000020F9
:104180002DE9F843044690F84100984616460D463E
:10419000202802D00220BDE8F88385B17EB100203E
:1041A0006064212084F84100FEF712FFA684814656
:1041B000E684A0682027B0F5805F02D003E00120EC
:1041C000E9E7206910B12E4600250EE000260CE03C
:1041D0008021204601F0C1FBA8B9C6B116F8010B39
:1041E00021684860E08C401EE084E08C4B464FF034
:1041F0000002CDF800800028EAD14FF040012046AF
:1042000001F0ABFB40B184F841700320C3E735F8FF
:10421000020BC0F30800E3E784F841700020BAE71E
:104220007047FEE70148FEF7F4BE0000440000209E
:104230000148FEF74BBF00004400002038B5806BFA
:10424000002190F83D202B4B46F2A8141B68B3FBCD
:10425000F4F3C3EBC30303EB830300933BB15B1E97
:10426000009303681B689B0505D5009BF6E7036C6C
:1042700043F020030364436B03B1D963836B03B141
:10428000D96303681C6824F480641C604185436B17
:1042900003B11965836B03B1196503681C6824F0C9
:1042A00001041C6090F83D402023602C0BD0282492
:1042B00034EA02020FD080F83D3080F83E1000BF93
:1042C000FFF71CF838BD80F83D3080F83E100164DF
:1042D000FEF784FE38BD0268136843F001031360E3
:1042E0000268136843F480631360016380F83D4003
:1042F000E6E700004000002000684169C943090664
:1043000001D400210161704770B5044690F83D006A
:1043100094F83E10102901D0402906D1222804D15A
:1043200021680A6822F400620A60282131EA00024A
:104330004FF000054FF0200626D021684968090596
:1043400005D4602803D084F83D6084F83E5025638E
:1043500020684168090537D5416821F40061416052
:10436000606B90F835203C49012A11D00165606BE3
:10437000FEF79FFB38B32068016821F0010101605E
:1043800084F83D60606B1CE0256384F83D10DFE736
:10439000A06B0165A06BFEF78CFBA0B120684169A2
:1043A000C943490605D40069616A0870606A401C07
:1043B00060622068016821F00101016084F83D60BD
:1043C000A06B016D884710E094F83D10602910D073
:1043D0004169C943490605D40069616A0870606A89
:1043E000401C60622046FEF789FF206CC1071CD18B
:1043F00015E084F83D6025644169C943490605D448
:104400000069616A0870606A401C60622068016827
:1044100021F0010101602046FEF7E0FDE5E781079C
:1044200003D4410701D4000704D52068416821F472
:10443000E061416094F83D00216C49070BD52828C4
:1044400009D10648E062256384F83D6084F83E5057
:104450002046FFF719F870BD3D4200080000FFFF3D
:1044600001684A69D24352050FD46FF480624A61F1
:10447000002140F8301F202242738173026942F00C
:10448000040202610173012070470020704710B5DB
:10449000C26A438D0168042B06D0438D032B08D0DC
:1044A000438D022B1DD012E04A6822F480624A60DC
:1044B0000CE04B6823F480634B60042A06D0022A88
:1044C00004D001680A6822F480620A600168096900
:1044D000426A1170416A491C4162418D491E418501
:1044E00010BD012A34D0102A32D0042A34D0022A36
:1044F00032D00B6843F400730B6001680969436AAA
:104500001970416A491C4162438D5B1E43850368F3
:104510001B690B70416A491C4162418D491E4185EE
:1045200001684B6823F440734B60202180F83D10F4
:1045300090F83E300021402B80F83E1010D0082A21
:1045400002D0202A00D012210163FEF79EFF10BD89
:104550000B6823F48063CFE70B6843F48063CBE7F9
:104560000163FFF72BF810BD38B590F83D102229F4
:1045700010D1C36A418D03290DD901680969426AC6
:104580001170416A491C4162418D491E4185418D2E
:10459000032906D038BDC26A022A02D0012906D0FA
:1045A00029B10068416821F48061416038BD2A4A20
:1045B00046F2A81400211268B2FBF4F202EB820268
:1045C000009202682024009D6D1E009526D015687B
:1045D000AD05F8D4156825F4806515600268556846
:1045E00025F4E065556002681269456A2A70426ADE
:1045F000521C4262428D521E428580F83D4090F826
:104600003E2080F83E10402A21D0082B02D0202BDB
:1046100000D012210163FEF738FF38BD036C43F070
:1046200020030364536823F4E06353600268126953
:10463000436A1A70426A521C4262428D521E42857F
:1046400080F83D4080F83E10FEF758FE38BD01630B
:10465000FEF7B4FF38BD000040000020F8B5044666
:10466000C06A1E460D461746082807D0012805D007
:1046700010F5803F02D0206B122804D12068016819
:1046800041F480710160134600224FF00111204671
:10469000009600F03BFB40B120680068C00502D5E1
:1046A0004FF4007020640320F8BD2069B0F5804FFE
:1046B0000ED00620216800EAD51040F0F000086115
:1046C00033463A460B49204600F068FB78B902E0D1
:1046D00005F0FE0000E0E8B22168086105493346B4
:1046E0003A46891F204600F059FB0028DCD0012003
:1046F000F8BD00000800010010B5C26A90F83D1036
:1047000021290BD1418D51B1416A026809781161AB
:10471000416A491C4162418D491E418510BD2023DB
:104720000021082A13D0202A11D012F5803F0ED084
:104730000268546824F4E06454601122026380F833
:104740003E1080F83D3000BFFEF7A0FE10BD0268AD
:10475000546824F4E06454600268146844F40074FB
:104760001460016380F83D3090F83E2080F83E10E0
:10477000402AE9D1FEF723FF10BD000010B590F8E4
:104780003D1090F83E30C26A048DB4B1212903D0A7
:10479000402B11D122290FD1418DE1B390F83E1069
:1047A000402942D0416A026809781161416A491C76
:1047B0004162418D491E418510BD2129E8D1202348
:1047C0000021082A13D0202A11D012F5803F0ED0E4
:1047D0000268546824F4E06454601122026380F893
:1047E0003E1080F83D3000BFFEF750FE10BD02685D
:1047F000546824F4E06454600268146844F400745B
:104800001460016380F83D3090F83E2080F83E103F
:10481000402AE9D100E002E0FEF7D1FE10BD0068B9
:10482000416821F48061416010BDBDE8104000F096
:10483000D3B8000078B590F83E50C26A036B90F888
:104840003D6000240168222E7AD1066D0EB9402DFC
:1048500076D0056D1DB90569B5F5404F09D0458D78
:1048600005B3468D384D012E0ED0438D022B3AD024
:104870005DE04A698A6900920A6842F480720A60BF
:10488000016D491C016578BDAA4213D10A6822F462
:1048900080620A6001684A68120503D50A6822F43A
:1048A000806216E04A698A6900920A6842F40072DE
:1048B0000A6039E0082A10D0202A0ED0122B0AD024
:1048C000042A03D0022A01D0102AE7D10A6842F450
:1048D00080620A6024E0012AE0D00A6822F4806243
:1048E0000A600168DEE7042A21D0022A1FD0102ABC
:1048F0001DD00B6823F480630B6001680B6843F4E0
:1049000000630B6001684B681B0509D5AA4212D0F1
:10491000012A10D0082A0ED0102A0CD0202A0AD042
:1049200001684A6989690091046578BD08E00B68EF
:1049300043F48063E5E74A6842F480524A60EFE757
:10494000486988690090F0E70000FFFF90F83E108A
:10495000402910D00169B1F5804F19D0016DA9B37C
:10496000016D012910D1416C5FF0F10201F4407139
:1049700042EAD11106E0016D0029416C05D0C9B2AF
:1049800041F0010100680161704701F0FE01F9E7A3
:1049900090F83D102129416C09D0C9B241F00101C4
:1049A00002681161416B29B1C96B49B902E001F09C
:1049B000FE01F5E7816B0029E6D0C96B0029E3D041
:1049C0000068416841F4006141607047FFE7416C55
:1049D000F02201F44071CBE710B590F83D10026D64
:1049E0004AB1026D012A14D0026D022A16D0BDE828
:1049F0001040FFF781BCC16C0129816C02D0C1F36A
:104A0000072108E00268C9B21161016D891C0165C6
:104A100010BD816CC9B20268116123E022291CD04B
:104A2000428D0AB1212920D0428D002AF0D12129BE
:104A3000EED101684A6822F4E0624A6001680A68BF
:104A400042F400720A6000210163202280F83D20B8
:104A500080F83E10FEF7B3FD10BD01680A6842F40D
:104A600080720A60016D491CD1E7416A02680978C9
:104A70001161416A491C4162418D491E418510BD49
:104A800038B50C4690F83D20002128259543026852
:104A90000B4605D051699169009180F83C3038BDD2
:104AA000556825F480655560E243540700D501211F
:104AB000120601D5828900E0028B80F83C3092B268
:104AC000FEF78DFA38BD00002DE9F04190F83D3039
:104AD0000446C26A002120261E4F00686FF48065DC
:104AE000082A01D0202A01D1282B04D0212B17D04D
:104AF0004561BDE8F081E762426822F4E06242600D
:104B0000206845612068026822F4806202602163A7
:104B100084F83D6084F83E102046FEF7B5FCE8E7D7
:104B2000E7622122226384F83D6084F83E104168E8
:104B300021F4E0614160206845612068016821F44A
:104B4000806101602046FFF7D7FB2046FEF79FFDFE
:104B5000CFE700000000FFFFF8B590F83D60044685
:104B60000068416821F4E0614160206800254169E6
:104B70000091016841F0010101602068016821F4A1
:104B80008061016020684168090520D5474F222EC9
:104B900048D02A2E46D0616B096849686185618DCD
:104BA00019B1216C41F004012164416821F40061D4
:104BB0004160606BFDF78FFF012808D0606B0765CF
:104BC000606BFDF776FF10B1606B016D8847608DFB
:104BD00008B320684169C943490708D40069616A7C
:104BE0000870606A401C6062608D401E60852068AD
:104BF0004169C943490608D40069616A0870606A5E
:104C0000401C6062608D401E6085608D18B1206C14
:104C100040F004002064206C00B32046BDE8F8405A
:104C2000FFF772BBA16B096849686185618D19B195
:104C3000216C41F004012164416821F4006141606C
:104C4000A06BFDF748FF0128C1D0A06B0765A06BE2
:104C5000FDF72FFF0028BAD0A06BB6E72A2E06D1A9
:104C60002563282084F83D002046FEF70FFD94F8C8
:104C70003D10202028290DD0216B222901D0222E81
:104C800007D1256384F83D0084F83E502046FEF7A6
:104C9000FDFCF8BD0649E162256384F83D0084F817
:104CA0003E502046FEF7F0FBF8BD00003D420008F4
:104CB0000000FFFF70B516460D4604461EE0204674
:104CC000FFF7CEFB08B1012070BD681C16D0FEF7BF
:104CD0007FF9801BA84200D885B920684069C0438D
:104CE00040070BD5002044F8300F20216173A073DA
:104CF000216941F0200121612073E4E720684069C7
:104D0000C0434007DBD4002070BD00002DE9F04710
:104D1000984617460D460446C1F30746DDF8209035
:104D20002AE000BFB8F1FF3F26D0FEF751F9A0EB13
:104D30000901414502D8B8F1000F1DD12068012EAC
:104D400016D0806925EA00000004000C12D0002073
:104D5000B84211D1002044F8300F20216173A073B4
:104D6000216941F02001216120730120BDE8F08715
:104D70004069E7E70120EBE72068012E0AD080694F
:104D800025EA00000004000C06D00020B842C9D07B
:104D90000020EBE74069F3E70120F7E72DE9F04752
:104DA000984616460D4604464FF000094FF0200A7B
:104DB000C1F3074723E020684069C043400515D48C
:104DC0002068016841F40071016021686FF480601F
:104DD0004861C4F8309084F83DA084F83E90216C7E
:104DE00041F00401216484F83C9021E0701C06D05D
:104DF000FEF7EEF8A0EB0800B04203D816B1012F81
:104E00001FD021E02068012F15D0806925EA00001D
:104E10000004000C18D000BF44F8309F84F80DA0A7
:104E200084F80E90216941F02001216184F80C90F2
:104E30000120BDE8F087406925EA00000004000C6D
:104E4000EAD12068406901E02068806925EA000015
:104E50000004000CAFD1ECE770B516460D460446D1
:104E60001EE02046FFF7FCFA08B1012070BD681C67
:104E700016D0FEF7ADF8801BA84200D885B920688F
:104E80004069C04300060BD5002044F8300F2021B4
:104E90006173A073216941F0200121612073E4E76F
:104EA00020684069C0430006DBD4002070BD0000CC
:104EB00010B586B014216846FBF7AEFC15480168B2
:104EC00041F080010160016801F0800105910168F5
:104ED00041F002010160016801F0020105910168E1
:104EE00041F00101016000680B4C00F001000590E9
:104EF000012204212046FEF766F801210420CDE9B5
:104F000000010291039169462046FDF757FF06B064
:104F100010BD00003038024000040240FEE7FEE70A
:104F200010B50021074B0A465FF0000003EBC004F8
:104F3000401CC0B262548028F8D3491CC9B2082969
:104F4000F2D310BD0C2200202DE9FE4F161ACDE938
:104F500000104FF000085D1A47464FF0FF30002E5A
:104F600002DD4FF0010102E003D14FF000018B465A
:104F700002E08346C6F10006002D02DD4FF001007D
:104F800002E003D14FF00000824602E08246C5F104
:104F90000005AE4201DD344600E02C46601C4FF0B7
:104FA0000009029019E000980C9AC1B20198C0B2B1
:104FB00000F018F8B0442F44A04504DD0198A8EB98
:104FC000040858440190A74203DD00983F1B504459
:104FD000009009F101001FFA80F902998945E2DB8E
:104FE000BDE8FE8F30B5CC0801F0070301259D40D8
:104FF000EBB2064D05EBC005C808285C0AB11843A2
:1050000002E063EA0000C043285530BD0C220020B6
:1050100010B5C820FDF762FD0021AE2000F038F980
:105020000021084600F034F90021102000F030F98A
:105030000021402000F02CF90021812000F028F907
:105040000021CF2000F024F90021A12000F020F958
:105050000021C82000F01CF90021A62000F018F95A
:105060000021A82000F014F900213F2000F010F9E1
:105070000021D32000F00CF90021084600F008F9C7
:105080000021D52000F004F90021802000F000F973
:105090000021D92000F0FCF80021F12000F0F8F800
:1050A0000021DA2000F0F4F80021122000F0F0F8DE
:1050B0000021DB2000F0ECF80021402000F0E8F8AF
:1050C0000021202000F0E4F80021022000F0E0F8A8
:1050D00000218D2000F0DCF80021142000F0D8F829
:1050E0000021A42000F0D4F80021A62000F0D0F880
:1050F000FFF716FF0021BDE81040AF2000F0C8B850
:10510000F0B5A3B00024164E402701AD04F1B00065
:10511000C0B2002100F0BCF80021084600F0B8F849
:105120000021102000F0B4F88DF804705FF000004A
:1051300006EBC0012A18401C095DC0B251708028DE
:10514000F6D364200090812301AA78210548FEF758
:105150009FF9641CE4B2082CD8D323B0F0BD000042
:105160000C220020440000202DE9FC4F1C460E4676
:1051700082468B460190082B0ED0600700D001209C
:1051800000EBD400610810FB01F0C0B28146203A68
:10519000D0B2009000204AE00620F7E7082C12D099
:1051A0000C2C17D0102C1AD0182C43D1009823495E
:1051B00000EBC00001EB8001002711F80850E80760
:1051C00012D00B9A13E000981D4900EB400001EB50
:1051D0004001F1E700981B4900EB4000EAE71A495B
:1051E000009801EB0011E7E70B9828B30022314645
:1051F0005046FFF7F7FE761C7F1C6D08FFB2F6B233
:10520000082FDCD30AF1010000F0FF0A082C0AD0B5
:105210000199AAEB0100B0EB540F04D10BF1080087
:105220008A4600F0FF0B08F101005E46C0B28046DE
:105230004845B3D3BDE8FC8F0122D8E7A46B000832
:10524000185F000840610008B46500082DE9F841C6
:105250000446C8061E461546070EDDF81C800CE005
:10526000334639462046CDF80080FFF77DFF082EF3
:105270000AD004EB5600C4B26D1C2A78A2F12000BB
:105280005E28EDD9BDE8F881A41DE4B2F4E7000082
:105290001CB501B140218DF804108DF80500642083
:1052A0000090022301AA78210148FEF7F1F81CBD05
:1052B000440000207047000070B5694C98B000258C
:1052C0002560656072B6FDF7AFFC169502200121DE
:1052D0001195CDE91301159016A911A8FDF710FC41
:1052E000FDF75AFC62B6642302225EA15E48FEF717
:1052F00047FF64232A225DA15B48FEF741FF642338
:10530000162265A15848FEF73BFF64232A2257A1C5
:105310005548FEF735FF66A000F070FDFCF748F930
:10532000FBF708FD6A4DA84202D100F053FD02E0F0
:1053300068A000F033FD00F087FD6AA000F05EFD7C
:10534000FCF736F9FBF7F6FC0646FCF79BFEFBF78D
:10535000F1FC864202D000F03DFD02E067A000F0C3
:105360001DFD6BA000F04AFDFCF722F9FCF77CFE66
:1053700078B16CA000F012FD6FA000F03FFDFCF7CB
:1053800017F9FCF7C3FCFCF76FFE28B100F022FD13
:1053900005E000F01FFDEFE76CA000F0FFFC70A03F
:1053A00000F02CFDFCF704F9FBF7C4FC714EA84299
:1053B00001D0B04202D100F00DFD02E06EA000F07D
:1053C000EDFC71A000F01AFDFCF7F2F8FBF7C2FC4F
:1053D000A84201D0B04202D100F0FCFC02E066A07D
:1053E00000F0DCFC6DA000F009FDFBF7C1FC0178CA
:1053F000012904D1417811B9807800282CD06BA004
:1054000000F0CCFC6EA000F0F9FC73A000F0C6FC2C
:1054100075A000F0F3FC00F0DDFC64232C2278A1E1
:105420001148FEF7ADFE2068009081A2402101A83E
:105430006368FAF7ABFF01A8FBF784F982B2642333
:1054400001A90948FEF79CFE64232A2207A1064809
:10545000FEF796FE18B070BD00F0BCFCD2E700006D
:105460000C0000200D0A0000980000203D3D3D3D4D
:105470003D3D3D3D3D3D3D3D3D3D3D3D3D3D3D3D5C
:105480003D3D3D3D3D3D3D3D3D3D3D3D3D3D3D3D4C
:105490003D3D3D3D0D0A0000426F6F746C6F6164CD
:1054A000657220412F422054657374730D0A000009
:1054B00064656661756C7420616374697665203D0E
:1054C00020506172746974696F6E204100000000A1
:1054D00000C000086E6F7420506172746974696F47
:1054E0006E204100737769746368206368616E673A
:1054F0006573206163746976650000006163746997
:10550000766520756E6368616E67656400000000F3
:105510006E6F20726F6C6C6261636B20666C61678A
:1055200000000000726F6C6C6261636B20747269C2
:10553000676765726564000073657420726F6C6CD8
:105540006261636B20666C6167000000726F6C6C57
:105550006261636B206E6F742073657400000000DD
:1055600061637469766520616464722076616C6938
:105570006400000000000408696E76616C696420B4
:105580006164647200000000746172676574206178
:105590006464722076616C696400000076657273E1
:1055A000696F6E20636F72726563740076657273E3
:1055B000696F6E206D69736D61746368000000002F
:1055C000706172746974696F6E2073697A65732093
:1055D000636F72726563740073697A65206D6973B5
:1055E0006D617463680000006D61676963207661B6
:1055F0006C75657320636F727265637400000000E0
:105600000D0A3D3D3D3D3D3D3D3D3D3D3D3D3D3D2D
:105610003D3D3D3D3D3D3D3D3D3D3D3D3D3D3D3DBA
:105620003D3D3D3D3D3D3D3D3D3D0D0A0000000001
:10563000526573756C743A2025642F25642070615F
:10564000737365640D0A00007047FEF721B800000F
:1056500030B593B030216846FBF7DEF814210CA872
:10566000FBF7DAF81E480025016841F0805101601F
:10567000006800F0805011901A48016841F48041A0
:1056800001600068022400F4804011900120009025
:10569000000401908001CDE90640082008904FF4F5
:1056A000A870CDE9090404200B906846FEF784F940
:1056B00008B172B6FEE70CA90F2081E831004FF463
:1056C000A0500F904FF48050109005210CA8FEF7C9
:1056D00089F8002801D072B6FEE713B030BD000093
:1056E00040380240007000400248016841F47001F7
:1056F0000160704788ED00E010B5806B0021C18526
:10570000FEF740FB10BD01680C3151E8002F22F478
:10571000907241E80023002BF5D10168143151E863
:10572000002F22F0010241E80023002BF5D1016B8C
:10573000012909D101680C3151E8002F22F0100233
:1057400041E80023002BF5D1202180F842100021F0
:105750000163704708B590F84210222901D0022059
:1057600008BD82684FF480539A4201D1016921B18A
:10577000816A9A421BD04AB10AE00268816A526883
:10578000C2F308020A80816A891C08E0026972B1CA
:105790000268526802F07F020A70816A491C8162C5
:1057A000C18D491E0904090CC18503D01BE00268A4
:1057B0005268F1E70168CA6822F02002CA600168F5
:1057C000CA6822F48072CA6001684A6922F0010244
:1057D0004A61202180F8421000214163026B012AB6
:1057E00003D0FEF7ABFC002008BD016301680C315B
:1057F00051E8002F22F0100241E80023002BF5D1E0
:1058000001680A68D20602D50A6849680091818D4C
:10581000FEF79CFAE7E7000070B5044600680169EE
:10582000E26821F44051114301612169A068E269F5
:1058300008436169114308432168CA6849F20C634F
:105840009A430243CA6020684169A26921F4407109
:105850001143416131492068884202D03049884271
:1058600002D1FEF769F801E0FEF756F8E26900237D
:10587000192164253226B2F5004F626828D0A0FBBA
:105880000101930F9200FAF709FD0146B0FBF5F014
:105890006FF01802504301EB800006EB0010B0FBE4
:1058A000F5F000F0F002B1FBF5F002EB0012B1FBF5
:1058B000F5F06FF01803584301EB800006EB001081
:1058C000B0FBF5F000F00F0021681044886070BD57
:1058D000A0FB010192185B41FAF7E0FC0146B0FB26
:1058E000F5F00201B1FBF5F06FF01803584301EB3E
:1058F000800006EBC000B0FBF5F000F0F80002EB12
:105900004002B1FBF5F0584301EB800006EBC0000C
:10591000B0FBF5F000F00700D6E7000000100140F2
:105920000014014081628285C285002141642221E8
:1059300080F84210016921B10168CA6842F480729E
:10594000CA6001684A6942F001024A610068C168A0
:1059500041F02001C160002070472DE9F8439846CE
:1059600017460D460446089E24E0701C22D0FDF721
:105970002FFBA0EB0800B0421AD8CEB12068C16856
:10598000490717D5802D15D0402D13D00168C94384
:1059900009070FD401680025406800902046FFF7F2
:1059A000B2FE0820606484F840500120BDE8F8830E
:1059B0000320FBE72068006835EA000004D00020DF
:1059C000B842D2D00020F1E70120F9E70148FEF704
:1059D000DBB9000098000020FEE70907090E002847
:1059E00004DB00F1E02080F80014704700F00F00A5
:1059F00000F1E02080F8141D704730380A2801D2E9
:105A0000012070470020704786B0FDF749FEFFF780
:105A10001FFEFFF74DFA76487449002401604FF4E9
:105A2000E131C0E901140C21C460C0E90441846182
:105A3000C461FEF7E9FA08B172B6FEE76C486D4939
:105A4000543801606C49C0E901144FF48041C0E949
:105A5000034144618461C4610462FDF751FC08B1F3
:105A600072B6FEE7142101A8FAF7D6FE0220CDE9AE
:105A70000240624C012501A901952046FDF79EF9DF
:105A8000FFF7C6FAFFF74CFAFFF73AFB08235CA2D0
:105A9000002114200095FFF7D9FB08235DA2022105
:105AA0000A200095FFF7D2FBFFF72AFB4FF4FA70AC
:105AB000FDF714F8FBF77CFD01212046FDF776FA8F
:105AC000012821D1082359A2042100200095FFF7C5
:105AD000BDFBFFF715FB59A0FCF7F0F802E00A2028
